:020000020000FC
:200000000040003408606D140800683A0000000000000000000000000000000000000000D9
:20000800DEFFED04DFC00015D8400215D8800315D8C00415D9000515D9400615D98007156A
:20001000D9C00815000B307ADA000915DA400A15DA800B15DAC00C15DB000D15DB400E15C4
:20001800DB800F15DBC01015D9401115EBFFFF04DBC012150009313A2880004C10000326FA
:200020002000022600080EC000000306DF401215E8BFFF17003DA03AD9401117DF401217F6
:20002800DFC000172801707AD8400217D8800317D8C00417D9000517D9400617D9800717F7
:20003000D9C00817DA000917DA400A17DA800B17DAC00C17DB000D17DB400E17DB800F17CA
:20003800DBC01017DEC01304EF80083ADEFFF904DFC00615DF000515DF0005040005313A9B
:20004000E0BFFC15E0BFFC17E0BFFF15E03FFD1500800044E0BFFE15E0FFFF17E0BFFE173B
:200048001884703A1005003A1000161EE0BFFD1700C0007418EACB04100490FA10C5883AD2
:2000500011400017E0BFFD1700C0007418EACB04100490FA10C5883A10800104110000177E
:20005800283EE83A0005313AE0BFFB15E0BFFB17E0BFFF15E0BFFF171004C03A103FE31E6A
:2000600000000706E0BFFE171085883AE0BFFE15E0BFFD1710800044E0BFFD15003FDE065B
:20006800E037883ADFC00117DF000017DEC00204F800283A06C00074DEC00014068000740E
:20007000D68A06140080003410AAC51400C0003418EB2E1410C003261000001510800104C3
:2000780010FFFD360009064000091500003FFF06DEFFFD04DFC00215DF000115DF00010408
:20008000E13FFF15D0A0BF1710800044D0A0BF15D160BF17010000742129490400082E8005
:2000880000C0007418C408040080004418800035E037883ADFC00117DF000017DEC0020481
:20009000F800283ADEFFFE04DF000115DF000104E03FFF1500C0007418C409040080020468
:200098001880003500800C44E0BFFF15E0FFFF170080007410840A0410C00035E0BFFF17B3
:2000A0001004D43A1007883A0080007410840B0410C0003500C0007418C40904008001C447
:2000A80018800035E037883ADF000017DEC00104F800283ADEFFFD04DFC00215DF00011516
:2000B000DF00010400082440D80000150009883A014000440180007431A07C04000F883A8C
:2000B8000008D980003FFF06DEFFFB04DFC00115D9400215D9800315D9C0041500800074AB
:2000C00010AA060411400017D8800204D880001529C00217100D883A0080007410A2B004EE
:2000C800200B883A388001153809883A0008A9C0DFC00117DEC00504F800283ADEFFFC0454
:2000D000DFC00115D9800215D9C0031522000217D8800204D8800015100F883A008000745F
:2000D80010A2B004280D883A40800115400B883A00084000DFC00117DEC00404F800283AC9
:2000E000DEFFFB04DC800315DC400215DC000115DFC004152025883A2823883A3821883AA4
:2000E800D98000059009883A880B883AD80D883A01C0004404000B0E88C00117843FFFC43B
:2000F000183EE83A103FF72600BFFFC4DFC00417DC800317DC400217DC000117DEC005048A
:2000F800F800283A0005883ADFC00417DC800317DC400217DC000117DEC00504F800283A6D
:20010000DEFFE304DF001B15DDC01A15DD001715DC801515DC001315DFC01C15DD80191552
:20010800DD401815DCC01615DC401415D90010152829883AD9C011153025883A0021883AB7
:20011000D8000F15D8000E150039883AD8000915D8000D15D8000C15D8000B15002F883A0B
:200118009140000301C000449480004429003FCC2100201C213FE0042000152681C03526CA
:200120003C002016803FF61E008009442081501E073FFFC400800284D9C00C15D8000F15D9
:20012800D8000E15DF000915D8800D15D8000B15914000033821883A9480004429003FCCD2
:200130002100201C213FE00401C00044203FEB1EB805883ADFC01C17DF001B17DDC01A1771
:20013800DD801917DD401817DD001717DCC01617DC801517DC401417DC001317DEC01D0466
:20014000F800283A0080008480801726008000C480BFD31E2C7FF40488C03FCC00800244D4
:2001480010C02136D8C0091718012716D9000917014002840008D6001007883A88803FCCD8
:200150001080201C10BFE0041887883AD8C00915003FC30600800C042080B326008009441B
:2001580020812726040000842C7FF40488C03FCC0080024410C00A36E000B416E009883AF0
:20016000014002840008D6001007883A88803FCC1080201C10BFE00418B9883A003FB006E7
:2001680000800B842080A32600801B042080A326D8C009171800A716D8000F1528BFEA0499
:2001700010803FCC00C00804188028361085883A1085883A00C0007418E17A0410C5883A22
:20017800110000172000683A000086740000866C0000866C0000866C0000866C0000866CC9
:200180000000866C0000866C0000866C0000866C0000866C000088A0000086880000866C7D
:200188000000866C0000866C0000866C000086880000866C0000866C0000866C0000866CAB
:200190000000866C000089080000866C0000866C0000866C000089180000866C000087ECF0
:200198000000866C0000866C000087E40021883A003F7B0600C0040400800044D8C00D150F
:2001A000D8000C15D8800B15D8C00E171805003A10005A1ED8800C171000781ED880111791
:2001A800D8000A151440001711C00104D9C0111588005A26D8C00B17DCC0004405800244D3
:2001B000182B003ADCC012150000050621000C04990000059CC0004480000F268023883A5B
:2001B800D9400D178809883A0008D500D9000D17100B883A1021883A0008D6008889C83AFC
:2001C000B13FF20EA8009F1E21000DC4990000059CC00044803FF11ED880121798A3C83A0E
:2001C800D8C009171C4BC83A0140130ED8C00044188008049880102E00800C0428FFFFC444
:2001D000988000059900004400C0080ED8C00044188008042080052E00800C0420800005B7
:2001D800210000449945883A20BFF81ED88012172027883A20A3C83AD8C00A171C45883AE2
:2001E000E0A1C83AD8800F17100080261805003A1000AE260400A516B805883A0440950EE8
:2001E800102F883A1461883A00000206BDC0004485FFAE269CFFFFC498800003A0C00117AD
:2001F000D9001017D8800005A00B883AD80D883A01C00044183EE83A103FF42605FFFFC4D1
:2001F800003F3B0600C00404D8C00D15D8000C15D8C00E171805003A103FA626D8C00C1702
:200200001800171ED8C01117D8000A151C40001719C00104D9C01115883FA61EDCC000445F
:20020800DCC01215003FBE0604000084D9C00F15003F0B06040000C4003F090600800044A1
:20021000040000C4D8800E15003F05060007883A003F4E0600800044D8800915003F57060F
:20021800D88011171440001710800104D880111588000716D8000A15003F8D06D8C011179A
:200220001C40001718C00104D8C01115883FF90E008000440463C83AD8800A15003F840675
:20022800040000448700080ED9001017A00B883A01800804E1FFFFC400083800103FC71EC0
:20023000E5C5883A15FFFFC4D8C01117D9001017800F883A18800017A0C00117A00B883AC6
:20023800D8800005D80D883A183EE83A103FBB1ED8801117BDC000440021883A1080010449
:20024000D8801115003ED60600800204D8800D15D8000C15003FB606D8C011171CC000175F
:200248009809883A0008B7C0E0A1C83A1023883A0400070ED9001017A00B883A0180080429
:20025000800F883A00083800103FA41EBC2F883AA0C00117D9001017980D883AA00B883AF3
:20025800880F883A183EE83A103F9C1ED8801117BC6F883A0021883A10800104D880111549
:20026000003EB706210015C4003F510604003B16D8C00A171805003A103F7F1EA0C001172A
:20026800D900101700800B44D8800005A00B883AD80D883A01C00044183EE83A103F871EC5
:20027000B8800044003F75060007883A003EDB06A0C00117D9001017D9400005D80D883A13
:20027800A00B883A183EE83A103F7C1EBDC00044003E9B06102F883A0021883A003E980638
:20028000A0C00117D9000005D9001017A00B883AD80D883A800F883A183EE83A103F6F1E4F
:20028800BC2F883A0021883A003E8D06D9001017A00B883A01800C04800F883A0008380066
:20029000103F661EBC05883A003F5406A0C00117D900101700800B44D8800005A00B883A4E
:20029800D80D883A01C00044183EE83A103F5B1EBDC00044043F480E003FEC06D9001017CF
:2002A000A00B883A01800804800F883A00083800103F521EBC2F883A003FBD060080007451
:2002A80010AA06042013883A110000172805883A300F883A480B883A100D883A0008400128
:2002B0002880000BDEFFFA04DCC003151080020CDC800215DC400115DFC00515DD000415FA
:2002B800DC0000152825883A2027883A3023883A100020262940008F28000F1601C01B0E83
:2002C0003821883A05010004000002060400170E9140008F880D883A9809883A800F883A5D
:2002C800A400010E01C100040008B9C088A3883A80A1C83A00BFF5169080000B00FFFFC465
:2002D000108010149080000D1805883ADFC00517DD000417DCC00317DC800217DC4001174C
:2002D800DC000017DEC00604F800283A0007883A003FF50600FFFFC4003FF306208000076D
:2002E000100005262007883A18C0004418800007103FFD1E1905C83AF800283ADEFFFD045D
:2002E800DC00001504000074842AC604DC400115800000152023883A2809883A300B883A59
:2002F000380D883ADFC0021500091BC01007883A00BFFFC4188006261805883ADFC0021797
:2002F800DC400117DC000017DEC00304F800283A80800017103FF826888000151805883A40
:20030000DFC00217DC400117DC000017DEC00304F800283A29001B2E28001A160080004471
:200308000007883A01C007C40000030619C0132618C0004428000416294B883A1085883A7A
:20031000293FFA3610000D260007883A214002362149C83A1886B03A1004D07A280AD07AC2
:20031800103FFA1E300002262005883AF800283A1809883A2005883AF800283A0007883AD8
:20032000003FF806008000440007883A003FEF06DEFFFE04DC000015DFC001150021883A57
:2003280020000C16000D883A28000E160008C1401007883A8005003A1000011E00C7C83ABF
:200330001805883ADFC00117DC000017DEC00204F800283A0109C83A04000044000D883A03
:20033800283FF20E014BC83A8021003A003FEF06DEFFFF04DFC00015018000442807883A97
:200340002000041628000C16DFC00017DEC001040008C1410109C83A28000B16180B883A7C
:20034800018000440008C1400085C83ADFC00017DEC00104F800283A014BC83ADFC0001789
:20035000DEC001040008C1410147C83A003FF306000D883A0008C141018000440008C141B6
:2003580020000A260007883A2080004C1005003A2008D07A1000011E1947883A294B883A38
:20036000203FF91E1805883AF800283A0007883A1805883AF800283ADEFFF904DFC0061538
:20036800DF000515DF000504E13FFC15E17FFD15E1BFFE15E1FFFF15E0800217D880001564
:20037000E13FFC17E17FFD17E1BFFE17E1FFFF170008F6C0E037883ADFC00117DF000017D7
:20037800DEC00204F800283ADEFFF904DF000615DF000604E13FFE15E17FFF15E0BFFF174E
:20038000E0BFFC150005303AE0BFFB15E0FFFB1700BFFF841884703A1001703AE0BFFB17AA
:20038800E0BFFD15E0FFFC170080004410C4983A1007883A0080007410AAC704108000174F
:200390001886B03A0080007410AAC70410C000150080007410AAC70410800017100170FACC
:20039800E0BFFD17E0BFFA15E0BFFA171001703A0005883AE037883ADF000017DEC0010440
:2003A000F800283ADEFFF904DF000615DF000604E13FFE15E17FFF15E0BFFF17E0BFFC151A
:2003A8000005303AE0BFFB15E0FFFB1700BFFF841884703A1001703AE0BFFB17E0BFFD1581
:2003B000E0FFFC170080004410C4983A0084303A1007883A0080007410AAC70410800017EA
:2003B8001886703A0080007410AAC70410C000150080007410AAC70410800017100170FAE4
:2003C000E0BFFD17E0BFFA15E0BFFA171001703A0005883AE037883ADF000017DEC0010418
:2003C800F800283ADEFFFC04DF000315DF000304E13FFE15E17FFF15000530FAE0BFFD157A
:2003D000E0FFFF170080004410C4983A1007883AE0BFFD171884703A1004C03AE037883AF5
:2003D800DF000017DEC00104F800283ADEFFF404DFC00B15DF000A15DF000A04E13FFB1563
:2003E000E17FFC15E1BFFD15E1FFFE1500BFFA84E0BFFA15E0BFFC17E0BFF915E0BFF917EE
:2003E800108008081000291E0005303AE0BFF715E0FFF71700BFFF841884703A1001703AB4
:2003F000E0BFF717E0BFF815E0BFF91700C0007418EACB04100490FA10C7883AE0BFFD17F6
:2003F80018800015E0BFF91700C0007418EACB04100490FA10C5883A10C00104E0BFFE17C6
:2004000018800015E0BFFD171005003A1000051EE17FF917E13FFB170008DE80E0BFFF153F
:2004080000000406E17FF917E13FFB170008E840E0BFFF15E0BFFF17E0BFFA15E0BFF81734
:20041000E0BFF615E0BFF6171001703AE0BFFA17E037883ADFC00117DF000017DEC00204E1
:20041800F800283ADEFFFE04DFC00115DF000015D839883A01000074212A0F040140007487
:20042000296959040180007431AA0F0400090E400100007421200804014000742960080487
:200428000180007431A06D0400090E40010000742129490401400074296949040180007491
:2004300031A9590400090E400009794000099B80E037883ADFC00117DF000017DEC002040E
:20043800F800283ADEFFFC04DF000315DF000304E13FFD15E17FFE15E1BFFF15E0FFFE1743
:20044000E0BFFD1718800E2600000A06E0BFFD1710C00017E0BFFE1710C00015E0BFFE1726
:2004480010800104E0BFFE15E0BFFD1710800104E0BFFD15E0FFFE17E0BFFF1718BFF31EC3
:20045000E037883ADF000017DEC00104F800283ADEFFFD04DFC00215DF000115DF00010453
:200458000009883A00093400000937400100007421294C040140007429694C040180007461
:2004600031A94C040009AAC000098F000100007421265504000A1240D120C217D160C31701
:20046800D1A0C41700082B40E0BFFF150100004400096340E13FFF17000A1380DEFFF70466
:20047000DFC00815DF000715DF000704E13FFB15E17FFC15E1BFFD15E0BFFB171004803AF9
:200478001000091EE13FFB17014003040008D6001007883A0080007410A9A6041887883A44
:20048000E0FFFF1500000106E03FFF15E0BFFF17E0BFFA15E0BFFA171005003A1000241E7B
:20048800E0BFFA1710800217108000CC1005003A10001A1EE0BFFA17108000171080061704
:200490001005003A1000151EE0BFFA171080001710800617E17FFC17E1BFFD17E13FFA175E
:20049800103EE83AE0BFF915E0BFF9171004403A1000071E00092E00E0FFF91700C7C83AC6
:2004A00010C0001500BFFFC4E0BFFE1500000E06E0BFF917E0BFFE1500000B0600092E0066
:2004A8001007883A00800344188000150000040600092E001007883A008014441880001548
:2004B00000BFFFC4E0BFFE15E0BFFE17E037883ADFC00117DF000017DEC00204F800283AC0
:2004B800DEFFFD04DFC00215DF000115DF0001040080007410AA0E04108000171005003A01
:2004C0001000061E0080007410AA0E0410800017103EE83AE0BFFF15000003060080007461
:2004C80010AAC604E0BFFF15E0BFFF17E037883ADFC00117DF000017DEC00204F800283AA4
:2004D000DEFFFD04DFC00215DF000115DF000104E13FFF150009E800008000441001703AFB
:2004D800E037883ADFC00117DF000017DEC00204F800283ADEFFFE04DFC00115DF000015F8
:2004E000D839883A010000742129910400093A40E037883ADFC00117DF000017DEC0020428
:2004E800F800283ADEFFFD04DFC00215DF000115DF000104E13FFF15E13FFF17014000740E
:2004F000296A0B0400097DC0E037883ADFC00117DF000017DEC00204F800283ADEFFFA04A5
:2004F800DFC00515DF000415DF000404E13FFD15E17FFE15E1BFFF15E0BFFD171080001799
:20050000E0BFFC15E0BFFC1711000A04E0BFFD1711C00217E17FFE17E1BFFF17000948C081
:20050800E037883ADFC00117DF000017DEC00204F800283ADEFFFA04DFC00515DF000415C3
:20051000DF000404E13FFD15E17FFE15E1BFFF15E0BFFD1710800017E0BFFC15E0BFFC17CF
:2005180011000A04E0BFFD1711C00217E17FFE17E1BFFF1700095900E037883ADFC00117EA
:20052000DF000017DEC00204F800283ADEFFF604DF000915DF000904E13FFB15E17FFC1566
:20052800E1BFFD15E1FFFE15E0BFFB1710800017E0BFFA15E0BFFC17E0BFF915E0BFFD17F6
:200530001007883AE0BFFC1710C5883AE0BFF81500001606E0BFFA1710800037E0BFF7159F
:20053800E0BFF71710A0000C1005003A1000081EE0BFF7171007883AE0BFF91710C00005AB
:20054000E0BFF91710800044E0BFF91500000706E0FFF917E0BFFC171880071EE0BFFE174C
:200548001090000C1004C03A1000031EE0FFF917E0BFF81718BFE736E0FFF917E0BFFC1776
:2005500018800526E0FFF917E0BFFC171887C83AE0FFFF1500000906E0BFFE171090000C24
:200558001005003A1000031E00BFFD44E0BFFF150000020600BFFEC4E0BFFF15E0BFFF175F
:20056000E037883ADF000017DEC00104F800283ADEFFF904DF000615DF000604E13FFC15C1
:20056800E17FFD15E1BFFE15E1FFFF15E0BFFC1710800017E0BFFB15E0BFFE171007883AC5
:20057000E0BFFD1710C5883AE0BFFA1500001106E0BFFB17108001041080003710BFFFEC95
:200578001005003A10000B1EE13FFB17E0BFFD171080000310C03FCC18C0201C18FFE00479
:20058000E0BFFD1710800044E0BFFD152005883A10C00035E0FFFD17E0BFFA1718BFEC369B
:20058800E0BFFE17E037883ADF000017DEC00104F800283ADEFFF804DFC00715DF00061545
:20059000DF000604E13FFC15E0BFFC171004803A1000091EE13FFC17014003040008D60021
:200598001007883A0080007410A9A6041887883AE0FFFF1500000106E03FFF15E0BFFF17D0
:2005A000E0BFFB15E0BFFB171005003A10001D1EE0BFFB1710800017108004171005003AEF
:2005A8001000071EE0BFFB171080001710800417E13FFB17103EE83AE0BFFE1500000106A0
:2005B000E03FFE15E0BFFE17E0BFFA15E13FFC170009E080E0BFFA171004403A1000071E88
:2005B80000097340E0FFFA1700C7C83A10C0001500BFFFC4E0BFFD1500000806E03FFD1557
:2005C00000000606000973401007883A008014441880001500BFFFC4E0BFFD15E0BFFD170F
:2005C800E037883ADFC00117DF000017DEC00204F800283ADEFFFD04DFC00215DF00011506
:2005D000DF0001040080007410AA0E04108000171005003A1000061E0080007410AA0E047D
:2005D80010800017103EE83AE0BFFF15000003060080007410AAC604E0BFFF15E0BFFF1750
:2005E000E037883ADFC00117DF000017DEC00204F800283ADEFFFF04DF000015D839883AD0
:2005E800E037883ADF000017DEC00104F800283ADEFFFC04DF000315DF000304E13FFD153B
:2005F000E17FFE15E1BFFF15E0BFFF17E037883ADF000017DEC00104F800283ADEFFF90469
:2005F800DFC00615DF000515DF000504E13FFD15E17FFE15E0BFFD171005003A1000041E6F
:20060000E0BFFD17108002171004C03A1000071E000989001007883A00800584188000151A
:2006080000BFFA84E0BFFF1500001306E0FFFD17E0BFFE17E0BFFB15E0FFFC15E0FFFC1791
:20061000E0BFFB1718800115E0BFFB1710C00017E0BFFC1710C00015E0BFFB1710C00017A4
:20061800E0BFFC1718800115E0FFFB17E0BFFC1718800015E03FFF15E0BFFF17E037883A51
:20062000DFC00117DF000017DEC00204F800283ADEFFFD04DFC00215DF000115DF000104A2
:200628000080007410AA0E04108000171005003A1000061E0080007410AA0E041080001761
:20063000103EE83AE0BFFF15000003060080007410AAC604E0BFFF15E0BFFF17E037883AC5
:20063800DFC00117DF000017DEC00204F800283ADEFFFD04DFC00215DF000115DF0001048A
:2006400000BFFF0400C0007418E949041885883AE0BFFF1500000606E0BFFF1710800017DC
:20064800103EE83AE0BFFF1710BFFF04E0BFFF15E0FFFF170080007410A9480418BFF62EFF
:20065000E037883ADFC00117DF000017DEC00204F800283ADEFFFD04DFC00215DF0001157D
:20065800DF00010400BFFF0400C0007418E949041885883AE0BFFF1500000606E0BFFF1787
:2006600010800017103EE83AE0BFFF1710BFFF04E0BFFF15E0FFFF170080007410A949043A
:2006680018BFF62EE037883ADFC00117DF000017DEC00204F800283ADEFFFF04DF0000151F
:20067000D839883AE037883ADF000017DEC00104F800283ADEFFF804DFC00715DF0006153D
:20067800DC000515DF000504E13FFC15E17FFD15E1BFFE15E1FFFF15E13FFD17E17FFE1791
:20068000E1BFFF170009C1C0E0BFFB15E0BFFB171004803A10001F1EE13FFB1704000074F5
:200688008429A604014003040008D6001405883A10C00017E0BFFC1710C00015E13FFB174A
:20069000040000748429A604014003040008D6001405883A1080010410C00017E0BFFC174C
:2006980010C00115E13FFB17040000748429A604014003040008D6001405883A10800204C4
:2006A00010C00017E0BFFC1710C00215E13FFB170009E080E037883ADFC00217DF00011797
:2006A800DC000017DEC00304F800283ADEFFFB04DFC00415DF000315DF000304E13FFD159D
:2006B000E17FFE15E1BFFF15010000742129A904E17FFD170180004401C07FC400099D4074
:2006B800010000742129A604E17FFE17000D883A01C07FC400099D40010000742129AC041C
:2006C000E17FFF170180004401C07FC400099D40E037883ADFC00117DF000017DEC00204CB
:2006C800F800283ADEFFFA04DFC00515DF000415DC000315DF000304E13FFE15E0BFFE176B
:2006D0001080021710D00034E0BFFE1710C00215E03FFD1500002306E13FFD1704000074AC
:2006D8008429A604014003040008D6001405883A10C00017E0BFFE17108000171880161E9C
:2006E000E13FFD17040000748429A604014003040008D6001405883A1080020410800017B9
:2006E8001004403A10000C1EE13FFD17014003040008D6001007883A0080007410A9A604A0
:2006F0001887883AE0BFFE171880032600BFFCC4E0BFFF1500000A06E0BFFD17108000444B
:2006F800E0BFFD150080007410AA0D04108000171007883AE0BFFD1718BFD72EE03FFF1530
:20070000E0BFFF17E037883ADFC00217DF000117DC000017DEC00304F800283ADEFFF404D5
:20070800DFC00B15DF000A15DF000A04E13FFB15E17FFC15E1BFFD1500BFFFC4E0BFF815A6
:2007100000BFFB44E0BFF715E03FF615E13FFB1701400074296A0B040009EA00E0BFFA15CC
:20071800E0BFFA171004C03A1000051EE13FFB170009F340E0BFFA1500800044E0BFF61546
:20072000E0BFFA171005003A1000311EE13FFA17000A0540E0BFF815E0BFF8171004403AF3
:200728001000031EE0BFF817E0BFF71500002A06E13FF817014003040008D6001007883AC9
:200730000080007410A9A6041885883AE0BFF915E0FFFC170090003410BFFFC41886703AB6
:20073800E0BFF91710C00215E0BFF6171004C03A1000061EE13FF9170009B240E0BFF71547
:20074000E0BFF7171004803A1000131EE0BFFA17108003171005003A1000091EE0BFFA174D
:2007480010800317E13FF917E17FFB17E1BFFC17E1FFFD17103EE83AE0BFFF150000010674
:20075000E03FFF15E0BFFF17E0BFF7150000020600BFFB44E0BFF715E0BFF7171004403A0A
:200758001000091EE13FF8170009E0800009DA80E0FFF71700C7C83A10C0001500BFFFC432
:20076000E0BFFE1500000206E0BFF817E0BFFE15E0BFFE17E037883ADFC00117DF00001725
:20076800DEC00204F800283ADEFFFD04DFC00215DF000115DF0001040080007410AA0E0446
:20077000108000171005003A1000061E0080007410AA0E0410800017103EE83AE0BFFF15B5
:20077800000003060080007410AAC604E0BFFF15E0BFFF17E037883ADFC00117DF000017F2
:20078000DEC00204F800283ADEFFFC04DFC00315DF000215DC000115DF000104E13FFF15C7
:20078800E0BFFF17108000D010000F1EE13FFF17040000748429A604014003040008D600D4
:200790001405883A1080020410000015E13FFF17040000748429A604014003040008D60088
:200798001405883A10000015E037883ADFC00217DF000117DC000017DEC00304F800283AC7
:2007A000DEFFFF04DF000015D839883A000170FAE037883ADF000017DEC00104F800283A5B
:2007A800DEFFF904DFC00615DF000515DF000504E13FFD15E17FFE15E0BFFE1710800017BC
:2007B000E0BFFC15E13FFD170008B7C010800044E0BFFB1500000D06E0BFFC171100021754
:2007B800E1BFFB17E17FFD17000A15801004C03A1000031EE0BFFC17E0BFFF1500000706AB
:2007C000E0BFFC1710800017E0BFFC15E0FFFE17E0BFFC1710FFF01EE03FFF15E0BFFF1765
:2007C800E037883ADFC00117DF000017DEC00204F800283ADEFFFA04DFC00515DF00041501
:2007D000DF000404E13FFE150080007410AA090410800017E0BFFD1500003306E0BFFD17F0
:2007D800110002170008B7C0E0BFFC15E0BFFD1710C00217E0BFFC171885883A10BFFFC469
:2007E0001080000310803FCC1080201C10BFE00410800BD81000031EE0BFFC1710BFFFC464
:2007E800E0BFFC15E0BFFC171007883AE0BFFE171885883A1080000310803FCC1080201CA9
:2007F00010BFE00410800BE010000A1EE0BFFC171007883AE0BFFE171885883A1080000352
:2007F80010803FCC1080201C10BFE0041004C03A10000A1EE0BFFD1711000217E1BFFC17F1
:20080000E17FFE17000A15801004C03A1000031EE0BFFD17E0BFFF1500000806E0BFFD175E
:2008080010800017E0BFFD1500C0007418EA0904E0BFFD1710FFC91EE03FFF15E0BFFF17A4
:20081000E037883ADFC00117DF000017DEC00204F800283ADEFFFA04DFC00515DF000415B8
:20081800DC000315DF000304E13FFF1500BFFA04E0BFFD15E03FFE1500002006E13FFE17B7
:20082000040000748429A604014003040008D6001405883A108000171004C03A1000141EF1
:20082800E13FFE17040000748429A604014003040008D6001407883AE0BFFF171880001547
:200830000080007410AA0D0410C00017E0BFFE171880040E00C0007418EA0D04E0BFFE17A9
:2008380018800015E0BFFE17E0BFFD1500000606E0BFFE1710800044E0BFFE15E0BFFE1794
:2008400010800810103FDD1EE0BFFD17E037883ADFC00217DF000117DC000017DEC00304D3
:20084800F800283A200B883A000D883A0009883A000F883A000A1941DEFFFE04DC4000156A
:20085000000B883A2023883ADFC00115000A30408809883A000A500031FFFFC43000061E93
:2008580000000A0639FFFFC400BFFFC421000044294000443880052620C000032880000370
:2008600018BFF8261885C83AF800283A0005883AF800283ADEFFF9040080007410AA0704D6
:20086800DC40011514400017DC000015DD4005158C000C17DD000415DCC00315DC800215DF
:20087000DFC006152025883A282B883A3029883A3827883A8000262681400117008007C466
:20087800114037169000202681802217300029268140011700C00044310040171946983A9D
:200880002945883A1085883A1185883A20C8B03A14C02015150000150080008431004015EA
:20088800908018262945883A1085883A1405883A28C000440009883A1540021580C00115E7
:200890002005883ADFC00617DD400517DD000417DCC00317DC800217DC400117DC00001722
:20089800DEC00704F800283A81400117003FED060080007410AB0B041021883A88800C1558
:2008A000003FD5063080411710C4B03A30804115003FE406008000341080000410000B26A0
:2008A80001004204103EE83A10000826100D883A100040151000411580802215003FCC0649
:2008B00000800034108000041000021E013FFFC4003FDB0601002304103EE83A1007883A1C
:2008B800103FFA2688800C171821883A180001151880001588C00C15903FDB26003FBA0678
:2008C000F800283ADEFFF3040080007410AA0704DF000B15170000170080003410800004BC
:2008C8001005003AD8800215E0800C04DD800915DD400815DFC00C15DDC00A15DD000715B8
:2008D000DCC00615DC800515DC400415DC000315282D883AD9000115D8800015282B003AB2
:2008D800E4400C1788001226DDC00017888001178C802217143FFFC480000B169027003A38
:2008E000A800171E9800051E8409883A2105883A1485883A10C02017B0C01226843FFFC499
:2008E80000BFFFC480BFF61ED880021710003226DFC00C17DF000B17DDC00A17DD80091744
:2008F000DD400817DD000717DCC00617DC800517DC400417DC000317DEC00D04F800283A4A
:2008F8008409883A88C001172105883A1445883A18FFFFC4118002171C0018261000021529
:20090000303FE6268D0001179800121E00C000441C06983A908040171884703A10000D2607
:20090800908041171884703A10000E1E2105883A1485883A11400017D9000117303EE83AB9
:2009100088800117A0BFC61EB8800017147FD326003FC306303EE83A003FF9068C00011511
:20091800003FE7062105883A1485883A11000017303EE83A003FF2068880011710000B1E08
:200920008900001720000A26B9000015900002269009883A000000008809883A0000000093
:20092800BC400017883FB11E003FC10689000017882F883A2023883A883FAC1E003FBC0650
:20093000DEFFFD04DF000215DF000204E13FFF15E0BFFF17E0BFFE15E0BFFE171005003A50
:200938001000021E002AF07000000106002AF0B0E037883ADF000017DEC00104F800283A48
:20094000DEFFFD04DFC00215DF000115DF000104E13FFF15E13FFF17000A4C00003FFF0626
:200948000000A300732064256E6F6365000A73647665642F61746A2F61755F67305F74725D
:20095000000000007665642F61746A2F61755F67305F7472000000007665642F6C756E2FAE
:200958000000006C0000000000000000000000000000000000000000000000000000000013
:20096000000000000000000000000000000000000000000000000000000000000000000077
:2009680000000000000000000000000000000000000000000000000000000000000000006F
:20097000000000000000000000000000000000000000000000000000000000000000000067
:2009780000000000000000000000000000000000000000000000000000000000000000005F
:20098000000000000000000000000000000000000000000000000000000000000000000057
:2009880000000000000000000000000000000000000000000000000000000000000000004F
:20099000000000000000000000000000000000000000000000000000000000000000000047
:2009980000000000000000000000000000000000000000000000000000000000000000003F
:2009A000000000000000000000000000000000000000000000000000000000000000000037
:2009A80000000000000000000000000000000000000000000000000000000000000000002F
:2009B000000000000000000000000000000000000000000000000000000000000000000027
:2009B80000000000000000000000000000000000000000000000000000000000000000001F
:2009C000000000000000000000000000000000000000000000000000000000000000000017
:2009C80000000000000000000000000000000000000000000000000000000000000000000F
:2009D000000000000000000000000000000000000000000000000000000000000000000007
:2009D8000000000000000000000000000000000000000000000000000000000000000000FF
:2009E0000000000000000000000000000000000000000000000000000000000000000000F7
:2009E8000000000000000000000000000000000000000000000000000000000000000000EF
:2009F0000000000000000000000000000000000000000000000000000000000000000000E7
:2009F8000000000000000000000000000000000000000000000000000000000000000000DF
:200A00000000000000000000000000000000000000000000000000000000000000000000D6
:200A08000000000000000000000000000000000000000000000000000000000000000000CE
:200A10000000A6240000A62C0000A634000000000000000000000000000000000000000050
:200A18000000000000000000000000000000000000000000000000000000000000000000BE
:200A20000000000000000000000000000000000000000000000000000000000000000000B6
:200A28000000000000000000000000000000000000000000000000000000000000000000AE
:200A30000000000000000000000000000000000000000000000000000000000000000000A6
:200A380000000000000000000000000000000000000000000000000000000000000000049A
:200A4000000000000001000A000000000002000A000000000000000000000000000000007F
:200A4800000000000000A5440000000000000000000093DC0000943400000000000000006E
:200A500000000000000111080000A82C0000A82C0000A558000000000000000000000000C7
:200A5800000097B00000000000000000000000000000A67000000000000000000000A6700B
:200A600000000000000000000000A670000000000000000000000000000000000000000060
:200A680000000000000000000000000000000000000000000000000000000000000000006E
:200A7000000000000000000000000000000000000000000000000000000000000000000066
:200A780000000000000000000000000000000000000000000000000000000000000000005E
:200A8000000000000000000000000000000000000000000000000000000000000000000056
:200A880000000000000000000000000000000000000000000000000000000000000000004E
:200A9000000000000000000000000000000000000000000000000000000000000000000046
:200A980000000000000000000000000000000000000000000000000000000000000000003E
:200AA000000000000000000000000000000000000000000000000000000000000000000036
:200AA80000000000000000000000000000000000000000000000000000000000000000002E
:200AB000000000000000000000000000000000000000000000000000000000000000000026
:200AB800000000000000000000000000000000000000A5640000A564FFFFFFFF0000A82444
:200AC0000000A8240000A6700000A670FFFFFFFF0000000000000000000000000000000022
:200AC80000000000000000000000000000000000000000000000000000000000000000000E
:200AD000000000000000000000000000000000000000000000000000000000000000000006
:200AD8000000000000000000000000000000000000000000000000000000000000000000FE
:200AE0000000000000000000000000000000000000000000000000000000000000000000F6
:00000001FF
